:100000000C9462000C948A000C948A000C948A0070
:100010000C948A000C948A000C948A000C948A0038
:100020000C948A000C948A000C948A000C940C03A3
:100030000C948A000C948A000C948A000C948A0018
:100040000C94F5050C948A000C94C5060C948A0057
:100050000C948A000C948A000C948A000C948A00F8
:100060000C948A000C948A000000000024002700F1
:100070002A0000000000250028002B0000000000DE
:1000800023002600290004040404040404040202DA
:100090000202020203030303030301020408102007
:1000A0004080010204081020010204081020000012
:1000B0000007000201000003040600000000000029
:1000C0000000CA0711241FBECFEFD4E0DEBFCDBFB2
:1000D00011E0A0E0B1E0EAE1F9E102C005900D9283
:1000E000A632B107D9F712E0A6E2B1E001C01D9235
:1000F000A738B107E1F710E0C4ECD0E004C02297C4
:10010000FE010E94EF0BC23CD107C9F70E946409AF
:100110000C948B0C0C9400001F93CF93DF932EE272
:1001200031E080E090E010E118C0460F571FCA018F
:10013000959587958083982F813108F090E1812FE4
:10014000891B89931D923196E217F30771F7285F97
:100150003F4F68307105A9F0CB01BC016F5F7F4F45
:1001600043E0880F991F4A95E1F7FC01EA5DFE4FD5
:10017000EC01CA59DE4FDC01AA55BE4F40E050E009
:10018000D4CFDF91CF911F910895EF92FF920F93FB
:100190001F93CF93DF93CEE2D1E020E030E011C097
:1001A0008193D8016D938D01D7014D937D01EC179B
:1001B000FD07B1F72F5F3F4FEF012896283031053B
:1001C00099F0D90173E0AA0FBB1F7A95E1F7FD0101
:1001D000EA5DFE4F8D010A591E4F56EAE52E51E0A9
:1001E000F52EEA0EFB1EDCCFDF91CF911F910F9110
:1001F000FF90EF9008954F925F926F927F928F924F
:100200009F92AF92BF92CF92DF92EF92FF920F93A5
:100210001F93CF93DF93482E562ECA0168E671E0F4
:100220000E949C0BE82EE7017E01F92EC7016CE3CA
:1002300070E00E949C0B80E090E00E94680A6B01D5
:10024000B82EA92EB70180E090E00E94680A20E055
:1002500030E040E752E40E94D409F5012C2D3D2DF9
:100260004F2F5E2F0E946B099B01AC0160E070E094
:1002700080E89FE30E946B097B018C0160E070E0E5
:1002800080E89FE32E2D3F2D402F512F0E946B09B8
:10029000962E872E782E692E95016C2D7D2D832F1D
:1002A000922F20E030E0A9010E94D009882339F480
:1002B0006401530199248824772466245DC0950144
:1002C0006C2D7D2D832F922F20E030E040E85FE3FE
:1002D0000E94D009882359F499248824772466241D
:1002E000DD24CC2460E8B62E5FE3A52E58C095012E
:1002F0006C2D7D2D832F922F20E030E040E050E4E4
:100300000E94D009882339F4DD24CC2440E8B42E9F
:100310003FE3A32E17C095016C2D7D2D832F922FC7
:1003200020E030E040E450E40E94D009882379F4D2
:10033000DE2CCF2CB02EA12E9924882420E8722EFA
:100340009FE3692EEE24FF2400E010E028C0950111
:100350006C2D7D2D832F922F20E030E040E850E47B
:100360000E94D009882369F09E2C8F2C702E612E5C
:10037000DD24CC24BB24AA24EE24FF2400E81FE3C0
:100380000EC0E92CF82C072D162D9924882480E81E
:10039000782EBFE36B2EDD24CC24BB24AA24C42DED
:1003A000D0E0A3E0CC0FDD1FAA95E1F7C50DD11D6C
:1003B000F6E24F2EF1E05F2E4C0E5D1E6E2D7F2D6E
:1003C000802F912F20E030E040E052E40E941A0B91
:1003D0000E943C0AF20160838E010A591E4FA60159
:1003E0009501652F7C2D832F9A2D20E030E040E091
:1003F00052E40E941A0B0E943C0AF8016083CA551D
:10040000DE4FA4019301652F782D832F962D20E0D8
:1004100030E040E052E40E941A0B0E943C0A6883DC
:10042000DF91CF911F910F91FF90EF90DF90CF90D0
:10043000BF90AF909F908F907F906F905F904F9004
:1004400008956F927F928F929F92BF92CF92DF9288
:10045000EF92FF920F931F93CF93DF93B82E3A0141
:10046000082F10E0F3E0000F111FFA95E1F7E6E224
:10047000CE2EE1E0DE2EC00ED11E76E6E72E71E034
:10048000F72EE00EF11E0A551E4FC0E0D0E0862E7A
:100490009924C4010C2E02C0959587950A94E2F721
:1004A00080FF06C08B2D6C2FA3010E94FB0006C0AD
:1004B000F6011082F7011082F8011082219608944B
:1004C000C11CD11C0894E11CF11C0F5F1F4FC830E8
:1004D000D105F9F6DF91CF911F910F91FF90EF9029
:1004E000DF90CF90BF909F908F907F906F900895F6
:1004F000CF93DF93EC0180E060E0AE010E94210227
:1005000081E060E0AE010E94210282E066E6AE0179
:100510000E94210283E060E0AE010E94210284E09B
:1005200068E1AE010E94210285E069E9AE010E9406
:10053000210286E062E4AE010E94210287E06CE3C2
:10054000AE010E942102DF91CF9108950F931F9376
:10055000182F092F80E060E0412F592F0E942102BF
:1005600081E066E6412F502F0E94210282E066E67C
:10057000412F502F0E94210283E060E0412F502F35
:100580000E94210284E068E1412F502F0E94210245
:1005900085E069E9412F502F0E94210286E062E444
:1005A000412F502F0E94210287E06CE3412F502FF2
:1005B0000E9421021F910F9108958CB580658CBD1A
:1005C0008DB58EB58CB58C7F8CBD8DB581608DBDA4
:1005D00008959FB7F894E1E8F0E08081846080831B
:1005E00080818C7F8083A0E8B0E08C918C7F8C939D
:1005F00080818860808380818F7E80838C918F70E2
:100600008C93E8E8F0E0F183E083EFE6F0E08081AE
:10061000826080839FBF08951F920F920FB60F9242
:1006200011246F927F928F929F92AF92BF92CF923E
:10063000DF92EF92FF920F931F932F933F934F936D
:100640005F936F937F938F939F93AF93BF93CF935A
:10065000DF93EF93FF932A981EBC0DB407FEFDCFE6
:100660008EB58FEF8EBD0DB407FEFDCF8EB58FEF2B
:100670008EBD0DB407FEFDCF8EB58FEF8EBD0DB4D0
:1006800007FEFDCF8EB52A9A29980091E601402FEA
:1006900050E080E09A0193E0220F331F9A95E1F732
:1006A00016E2812E11E0912E820E931EB6EAAB2E39
:1006B000B1E0BB2EA20EB31EA6E6CA2EA1E0DA2E32
:1006C000C20ED31E21E030E07901002E02C0EE0CF4
:1006D000FF1C0A94E2F746C0142F6880861548F480
:1006E0003901042E02C0660C771C0A94E2F760946C
:1006F00096216080861548F43901012E02C0660CEF
:10070000771C0A94E2F7609466216C90861548F491
:10071000390102C0660C771C1A95E2F7162D109568
:1007200071234F5F5F4F21961196319648305105E6
:1007300099F62A98EEBC0DB407FEFDCF4EB57EBDEE
:100740000DB407FEFDCF4EB56EBD0DB407FEFDCF57
:100750004EB59EBD0DB407FEFDCF9EB52A9A8F5FA4
:10076000803249F0E401D501F60140E050E07FEF2E
:100770006FEF9FEFB1CF299A802F8F5F8093E601B3
:10078000883010F01092E601FF91EF91DF91CF9148
:10079000BF91AF919F918F917F916F915F914F9199
:1007A0003F912F911F910F91FF90EF90DF90CF908D
:1007B000BF90AF909F908F907F906F900F900FBEE3
:1007C0000F901F9018951F93CF93DF9310E028C0D0
:1007D000119319931D93E417F507D1F70196AF0113
:1007E000485F5F4F8830910581F09C01E3E0220F64
:1007F000331FEA95E1F7F901EA5DFE4FE901CA59B5
:10080000DE4FD901AA55BE4FE3CF64E070E080E02F
:1008100090E00E9463061F5F113211F410E22BC0BA
:100820004EE251E080E090E0E0CF119319931D93E8
:10083000E417F507D1F70196AF01485F5F4F8830A5
:10084000910581F09C0173E0220F331F7A95E1F747
:10085000F901EA5DFE4FE901CA59DE4FD901AA55F7
:10086000BE4FE3CF64E070E080E090E00E9463065A
:1008700011501F3F29F04EE251E080E090E0E2CFBE
:10088000DF91CF911F910895AF92BF92CF92DF92E7
:10089000EF92FF920F931F938C01F62EEE245A01D4
:1008A000CC24DD2416C0C601B5010E946306C80130
:1008B0000E94A602C601B5010E946306C8010E94FB
:1008C0007802C601B5010E946306C8010E94A60213
:1008D000E394EF1440F31F910F91FF90EF90DF909E
:1008E000CF90BF90AF9008950F931F9368E070E092
:1008F00080E090E00E940408062F68E070E080E04D
:1009000090E00E940408162F68E671E080E090E015
:100910000E9404089B01AC01802F612FA9010E9455
:10092000FB001F910F910895CF92DF92EF92FF92FB
:100930000F931F93082F10E0C62EDD24EE24FF2412
:1009400011C084E061E00E949005C701B6010E94D9
:10095000630684E060E00E949005C701B6010E9432
:1009600063061F5F101768F31F910F91FF90EF90C0
:10097000DF90CF900895CF93DF93C0E0D0E00E9446
:10098000740488E00E94C9050097A9F40E94E3035B
:1009900082E062E30E9494040E948C0084E792E06B
:1009A00060E071E00E9459096CED75E080E090E034
:1009B0000E94630604C081E06AE00E9494042196CC
:1009C000C83CD105E1F688EC90E068E044E650E0F0
:1009D0000E94440464EC79E080E090E00E946306A9
:1009E000DF91CF9108950E94BB0408958BE292E0BD
:1009F0000E9429088DE061E00E943E058AE061E0E6
:100A00000E943E058BE061E00E943E058CE060E0C4
:100A10000E943E0589E061E00E943E0588E060E0BA
:100A20000E943E0588E061E00E94900584E061E05C
:100A30000E943E058AE060E00E9490058BE060E045
:100A40000E9490058DE060E00E9490050E94DD020A
:100A50006AE070E080E090E00E94630680E060E081
:100A600040E00E94C5000E94E90284E792E040E86D
:100A700055E260E070E00E94FA060895282F30E009
:100A8000C90186569F4FFC019491F901EA57FF4F27
:100A9000E491EE23B9F0F0E0EE0FFF1FE859FF4FAD
:100AA000A591B491662341F42FB7F8948C91909559
:100AB00089238C932FBF08952FB7F8948C91892B9D
:100AC0008C932FBF0895833071F0843028F48130E7
:100AD000A1F0823021F514C08630B1F08730D1F01A
:100AE0008430E9F404C0809180008F7703C0809146
:100AF00080008F7D80938000089584B58F7702C039
:100B000084B58F7D84BD08958091B0008F778093E8
:100B1000B00008958091B0008F7D8093B00008955B
:100B20000F931F93DF93CF930F92CDB7DEB7282F8C
:100B300030E0F901E255FF4F8491F901E656FF4F8D
:100B400014912A573F4FF90104910023E1F08823C3
:100B500021F069830E9463056981E02FF0E0EE0FC8
:100B6000FF1FEE58FF4FA591B491662331F49FB754
:100B7000F8948C911095812304C09FB7F8948C91C0
:100B8000812B8C939FBF0F90CF91DF911F910F917D
:100B900008950F931F93282F30E0F901E255FF4F7E
:100BA0008491F901E656FF4F04912A573F4FF9010E
:100BB0001491112319F420E030E013C0882311F0C0
:100BC0000E946305E12FF0E0EE0FFF1FE458FF4F96
:100BD000A591B4918C9120E030E0802311F021E0C8
:100BE00030E0C9011F910F9108951F920F920FB627
:100BF0000F9211242F933F938F939F93AF93BF93A3
:100C00008091EB019091EC01A091ED01B091EE018A
:100C10003091EF010196A11DB11D232F2D5F2D37BE
:100C200020F02D570196A11DB11D2093EF01809357
:100C3000EB019093EC01A093ED01B093EE01809154
:100C4000E7019091E801A091E901B091EA010196D4
:100C5000A11DB11D8093E7019093E801A093E901E4
:100C6000B093EA01BF91AF919F918F913F912F91E6
:100C70000F900FBE0F901F9018959FB7F89420917A
:100C8000E7013091E8014091E9015091EA0186B510
:100C9000A89B06C08F3F21F02F5F3F4F4F4F5F4F04
:100CA0009FBF542F432F322F2227280F311D411D64
:100CB000511D82E0220F331F441F551F8A95D1F723
:100CC000B901CA010895EF92FF920F931F93CF933A
:100CD000DF937B018C010E943D06EB010FC00E9457
:100CE0003D066C1B7D0B83E0683E7807C0F30894DB
:100CF000E108F10801091109C851DC4FE114F104C0
:100D00000105110561F7DF91CF911F910F91FF90C0
:100D1000EF900895789484B5826084BD84B5816035
:100D200084BD85B5826085BD85B5816085BDEEE6F3
:100D3000F0E0808181608083E1E8F0E010828081D2
:100D400082608083808181608083E0E8F0E0808140
:100D500081608083E1EBF0E0808184608083E0EB60
:100D6000F0E0808181608083EAE7F0E08081846048
:100D700080838081826080838081816080838081A4
:100D8000806880831092C10008951F920F920FB661
:100D90000F9211242F933F934F936F937F938F93D1
:100DA0009F93EF93FF934091C60020917002309182
:100DB0007102C90101968F779070609172027091F3
:100DC00073028617970741F020513E4FF901408387
:100DD0009093710280937002FF91EF919F918F9198
:100DE0007F916F914F913F912F910F900FBE0F9078
:100DF0001F901895CF93DF93EC019A01AB01E88522
:100E0000F985203081EE380780E0480780E05807F8
:100E100009F449C081E090E00A8802C0880F991F58
:100E20000A94E2F7808360E079E08DE390E00E942D
:100E3000D20BCA01B901615070408040904022E05D
:100E400030E040E050E00E94D20BEC81FD81308325
:100E5000EE81FF812083EA85FB85808121E030E0FF
:100E6000A9010E8402C0440F551F0A94E2F7842B97
:100E70008083EA85FB858081A9010F8402C0440F2D
:100E8000551F0A94E2F7842B8083EA85FB858081D5
:100E9000088802C0220F331F0A94E2F7822B808356
:100EA000DF91CF910895108220E130E0CECFFC0198
:100EB00082819381FC01E058FF4F208131818E5760
:100EC0009F4FFC0180819181281B390B2F77307057
:100ED000C9010895FC0182819381FC01EE57FF4F07
:100EE00020813181FC01E058FF4F40815181421740
:100EF000530719F42FEF3FEF05C0820F931FFC013A
:100F0000208130E0C9010895DC0112962D913C91B9
:100F10001397F901EE57FF4F80819181D901A058B5
:100F2000BF4F4D915C9111974817590719F42FEF56
:100F30003FEF0AC0280F391FD9012C9101968F77F6
:100F400090709183808330E0C9010895DC0112968E
:100F50008D919C911397FC01E058FF4F8E579F4F46
:100F6000DC018D919C911197918380830895FC0100
:100F7000A085B18521898C9190E0022E02C09595C3
:100F800087950A94E2F780FFF6CF0484F585E02D7B
:100F90006083089588E191E09093750280937402D4
:100FA00080EF91E0909377028093760285EC90E059
:100FB000909379028093780284EC90E090937B0286
:100FC00080937A0280EC90E090937D0280937C0283
:100FD00081EC90E090937F0280937E0286EC90E01B
:100FE000909381028093800284E08093820283E068
:100FF0008093830287E08093840285E0809385025A
:1010000081E0809386020895EF92FF920F931F93E1
:101010007B018C01611571058105910521F420E0AA
:1010200030E0A9010FC00E94460CA80197010E9460
:10103000D20B572F482F392F862F952FA42FB32F40
:101040009C01AD01B901CA011F910F91FF90EF9072
:101050000895009729F0BC0180E090E00E944B0CBD
:1010600008950F931F93CF93DF93EC018B0109C079
:101070000F5F1F4FE881F9810190F081E02DCE01D3
:101080000995F8016081662399F7DF91CF911F914F
:101090000F910895EF92FF920F931F93CF93DF93D9
:1010A000EC018B017A010DC0F80161918F01E8819B
:1010B000F9810190F081E02DCE0109950894E108B5
:1010C000F108E114F10481F7DF91CF911F910F91A5
:1010D000FF90EF900895DC01ED91FC910280F38187
:1010E000E02D099508952F923F924F925F926F9253
:1010F0007F928F929F92AF92BF92CF92DF92EF92A8
:10110000FF920F931F93DF93CF93CDB7DEB7A297D4
:101110000FB6F894DEBF0FBECDBF1C015A016B01A4
:10112000411551056105710549F440E350E060E067
:1011300070E020E030E00E940C0955C0EE24FF244E
:101140008701622E7724882499242E010894411C5B
:10115000511CC2018E0D9F1D9AA389A3C601B50122
:10116000A40193010E94B00BE9A1FAA16083089445
:10117000E11CF11C011D111DC601B501A401930163
:101180000E94B00BA22EB32EC42ED52EA114B104F2
:10119000C104D104F1F6570168010894A108B1080F
:1011A000C108D108A40CB51C19C00894E108F108C5
:1011B00001091109F50140814A3010F4405D01C078
:1011C000495C552747FD5095652F752FC10120E0DB
:1011D00030E00E940C090894A108B108E114F10460
:1011E0000105110511F7A2960FB6F894DEBF0FBEE8
:1011F000CDBFCF91DF911F910F91FF90EF90DF90C6
:10120000CF90BF90AF909F908F907F906F905F90A6
:101210004F903F902F900895EF92FF920F931F935E
:10122000CF93DF93EC017A018B012115310541F455
:10123000E881F9810190F081E02D642F09951BC0B0
:101240002A303105B1F477FF10C04DE250E060E084
:1012500070E020E030E00E940C0910950095F094B9
:10126000E094E11CF11C011D111DCE01B801A70184
:101270002AE00E947308DF91CF911F910F91FF9098
:10128000EF900895CF93DF93EC014DE050E060E0E4
:1012900070E020E030E00E940C09CE014AE050E00E
:1012A00060E070E020E030E00E940C09DF91CF9117
:1012B0000895CF93DF93EC010E946B08CE010E944A
:1012C0004209DF91CF9108950E948A060E94F60498
:1012D0000E94F304FDCF5058BB27AA270ED070C13F
:1012E00061D130F066D120F031F49F3F11F41EF44B
:1012F00056C10EF4E095E7FB4CC1E92F72D180F3A3
:10130000BA17620773078407950718F071F49EF502
:101310008AC10EF4E0950B2EBA2FA02D0B01B90156
:1013200090010C01CA01A0011124FF27591B99F05B
:10133000593F50F4503E68F11A16F040A22F232F67
:10134000342F4427585FF3CF469537952795A795B7
:10135000F0405395C9F77EF41F16BA0B620B730B5E
:10136000840BBAF09150A1F0FF0FBB1F661F771FCF
:10137000881FC2F70EC0BA0F621F731F841F48F484
:10138000879577956795B795F7959E3F08F0B3CF0A
:101390009395880F08F09927EE0F979587950895F4
:1013A000D4D008F481E008950CD00AC102D140F0F5
:1013B000F9D030F021F45F3F19F0EBC0511134C186
:1013C000EEC00FD198F39923C9F35523B1F3951BC0
:1013D000550BBB27AA2762177307840738F09F5F56
:1013E0005F4F220F331F441FAA1FA9F333D00E2EC5
:1013F0003AF0E0E830D091505040E695001CCAF732
:1014000029D0FE2F27D0660F771F881FBB1F2617F6
:1014100037074807AB07B0E809F0BB0B802DBF01C9
:10142000FF2793585F4F2AF09E3F510568F0B1C0E7
:10143000FBC05F3FECF3983EDCF3869577956795AC
:10144000B795F7959F5FC9F7880F911D969587957A
:1014500097F90895E1E0660F771F881FBB1F621799
:1014600073078407BA0720F0621B730B840BBA0B57
:10147000EE1F88F7E0950895BCD088F09F5790F054
:10148000B92F9927B751A0F0D1F0660F771F881FA9
:10149000991F1AF0BA95C9F712C0B13081F0C3D0C4
:1014A000B1E00895C0C0672F782F8827B85F39F062
:1014B000B93FCCF3869577956795B395D9F73EF408
:1014C00090958095709561957F4F8F4F9F4F0895B0
:1014D000E89409C097FB3EF49095809570956195CE
:1014E0007F4F8F4F9F4F9923A9F0F92F96E9BB2784
:1014F0009395F695879577956795B795F111F8CF00
:10150000FAF4BB0F11F460FF1BC06F5F7F4F8F4F6A
:101510009F4F16C0882311F096E911C0772321F060
:101520009EE8872F762F05C0662371F096E8862FF8
:1015300070E060E02AF09A95660F771F881FDAF74F
:10154000880F9695879597F90895990F0008550F7C
:10155000AA0BE0E8FEEF16161706E807F907C0F039
:1015600012161306E407F50798F0621B730B840B41
:10157000950B39F40A2661F0232B242B252B21F41B
:1015800008950A2609F4A140A6958FEF811D811DBB
:10159000089597F99F6780E870E060E008959FEFF5
:1015A00080EC089500240A941616170618060906FA
:1015B000089500240A9412161306140605060895C9
:1015C000092E0394000C11F4882352F0BB0F40F451
:1015D000BF2B11F460FF04C06F5F7F4F8F4F9F4F91
:1015E000089557FD9058440F551F59F05F3F71F013
:1015F0004795880F97FB991F61F09F3F79F087957A
:101600000895121613061406551FF2CF4695F1DF02
:1016100008C0161617061806991FF1CF8695710592
:10162000610508940895E894BB2766277727CB01C6
:1016300097F908950BD0C4CFB5DF28F0BADF18F0C2
:10164000952309F0A6CFABCF1124EECFCADFA0F3CC
:10165000959FD1F3950F50E0551F629FF001729F47
:10166000BB27F00DB11D639FAA27F00DB11DAA1F66
:10167000649F6627B00DA11D661F829F2227B00DB3
:10168000A11D621F739FB00DA11D621F839FA00D3E
:10169000611D221F749F3327A00D611D231F849F8E
:1016A000600D211D822F762F6A2F11249F575040E5
:1016B0008AF0E1F088234AF0EE0FFF1FBB1F661F80
:1016C000771F881F91505040A9F79E3F510570F039
:1016D00060CFAACF5F3FECF3983EDCF38695779519
:1016E0006795B795F795E7959F5FC1F7FE2B880F34
:1016F000911D9695879597F90895629FD001739FE4
:10170000F001829FE00DF11D649FE00DF11D929F9D
:10171000F00D839FF00D749FF00D659FF00D9927DC
:10172000729FB00DE11DF91F639FB00DE11DF91F00
:10173000BD01CF0111240895AA1BBB1B51E107C0B5
:10174000AA1FBB1FA617B70710F0A61BB70B881F51
:10175000991F5A95A9F780959095BC01CD010895E0
:10176000A1E21A2EAA1BBB1BFD010DC0AA1FBB1FA5
:10177000EE1FFF1FA217B307E407F50720F0A21B17
:10178000B30BE40BF50B661F771F881F991F1A9484
:1017900069F760957095809590959B01AC01BD01AE
:1017A000CF01089597FB092E05260ED057FD04D0D2
:1017B000D7DF0AD0001C38F450954095309521951C
:1017C0003F4F4F4F5F4F0895F6F790958095709576
:1017D00061957F4F8F4F9F4F0895EE0FFF1F05902C
:1017E000F491E02D0994A0E0B0E0E9EFFBE00C9467
:1017F0005C0CEC01E880F9800A811B81E114F104A2
:101800000105110541F484E2E82E89EDF82E8BE5FF
:10181000082F87E0182FC801B7012DE133EF41E011
:1018200050E00E94D20B27EA31E440E050E00E94F1
:101830007D0B5B016C01C801B7012DE133EF41E085
:1018400050E00E94D20BCA01B9012CEE34EF4FEFE9
:101850005FEF0E947D0B9B01AC012A0D3B1D4C1DCF
:101860005D1D57FF04C02150304040405048288340
:1018700039834A835B835F77B901CA01CDB7DEB78D
:10188000EAE00C94780C0E94F30B089580E191E05B
:101890000E94F30B089560931001709311018093DF
:1018A00012019093130108952F923F924F925F92ED
:1018B0006F927F928F929F92AF92BF92CF92DF9260
:1018C000EF92FF920F931F93CF93DF93CDB7DEB7C5
:1018D000CA1BDB0B0FB6F894DEBF0FBECDBF099459
:1018E0002A88398848885F846E847D848C849B84B0
:1018F000AA84B984C884DF80EE80FD800C811B81BE
:10190000AA81B981CE0FD11D0FB6F894DEBF0FBEEC
:0A191000CDBFED010895F894FFCF5C
:10191A00627574746F6E20707265737365642100EA
:10192A000100000000000000B70731084A08570705
:06193A0084076A07A607FE
:103E000085E08093810082E08093C00088E1809308
:103E1000C10086E08093C20080E18093C40084B733
:103E200014BE81FFD0D08DE0C8D0259A86E020E373
:103E30003CEF91E0309385002093840096BBB09BCB
:103E4000FECF1D9AA8958150A9F7DD24D394A5E053
:103E5000EA2EF1E1FF2EA4D0813421F481E0BED01E
:103E600083E024C0823411F484E103C0853419F462
:103E700085E0B4D08AC08535A1F492D0082F10E037
:103E800010930102009300028BD090E0982F8827B6
:103E9000802B912B880F991F909301028093000231
:103EA00073C0863529F484E099D080E071D06DC06C
:103EB000843609F043C07CD0E0910002F091010209
:103EC00083E080935700E895C0E0D1E069D0899302
:103ED000809102028150809302028823B9F778D042
:103EE00007B600FCFDCF4091000250910102A0E016
:103EF000B1E02C9130E011968C91119790E0982FC1
:103F00008827822B932B1296FA010C01D09257002E
:103F1000E89511244E5F5F4FF1E0A038BF0749F7E5
:103F2000E0910002F0910102E0925700E89507B697
:103F300000FCFDCFF0925700E89527C08437B9F414
:103F400037D046D0E0910002F09101023196F09313
:103F50000102E09300023197E4918E2F19D08091F5
:103F60000202815080930202882361F70EC08537D8
:103F700039F42ED08EE10CD084E90AD086E096CFB9
:103F8000813511F488E019D023D080E101D063CFCE
:103F9000982F8091C00085FFFCCF9093C6000895B4
:103FA000A8958091C00087FFFCCF8091C60008953E
:103FB000F7DFF6DF80930202F3CFE0E6F0E098E16E
:103FC00090838083089580E0F8DFEE27FF2709942F
:103FD000E7DF803209F0F7DF84E1DACF1F93182F93
:0C3FE000DFDF1150E9F7F4DF1F910895B6
:0400000300003E00BB
:00000001FF