:100000000C9462000C948A000C948A000C948A0070
:100010000C948A000C948A000C948A000C948A0038
:100020000C948A000C948A000C948A000C940E03A1
:100030000C948A000C948A000C948A000C948A0018
:100040000C9447050C948A000C9438070C946F07A5
:100050000C948A000C948A000C948A000C948A00F8
:100060000C948A000C948A000000000024002700F1
:100070002A0000000000250028002B0000000000DE
:1000800023002600290004040404040404040202DA
:100090000202020203030303030301020408102007
:1000A0004080010204081020010204081020000012
:1000B0000007000201000003040600000000000029
:1000C0000000960811241FBECFEFD4E0DEBFCDBFE5
:1000D00011E0A0E0B1E0E2E6F8E102C005900D9287
:1000E000A632B107D9F712E0A6E2B1E001C01D9235
:1000F000A332B107E1F710E0C4ECD0E004C02297CE
:10010000FE010E94930BC23CD107C9F70E9400096F
:100110000C942F0C0C9400001F93CF93DF932EE2CE
:1001200031E080E090E010E118C0460F571FCA018F
:10013000959587958083982F813108F090E1812FE4
:10014000891B89931D923196E217F30771F7285F97
:100150003F4F68307105A9F0CB01BC016F5F7F4F45
:1001600043E0880F991F4A95E1F7FC01EA5DFE4FD5
:10017000EC01CA59DE4FDC01AA55BE4F40E050E009
:10018000D4CFDF91CF911F910895EF92FF920F93FB
:100190001F93CF93DF93CEE2D1E020E030E011C097
:1001A0008193D8016D938D01D7014D937D01EC179B
:1001B000FD07B1F72F5F3F4FEF012896283031053B
:1001C00099F0D90173E0AA0FBB1F7A95E1F7FD0101
:1001D000EA5DFE4F8D010A591E4F56EAE52E51E0A9
:1001E000F52EEA0EFB1EDCCFDF91CF911F910F9110
:1001F000FF90EF9008954F925F926F927F928F924F
:100200009F92AF92BF92CF92DF92EF92FF920F93A5
:100210001F93CF93DF93482E562ECA0168E671E0F4
:100220000E94400BE82EE7017E01F92EC7016CE326
:1002300070E00E94400B80E090E00E940C0A6B018D
:10024000B82EA92EB70180E090E00E940C0A20E0B1
:1002500030E040E752E40E947809F5012C2D3D2D55
:100260004F2F5E2F0E940F099B01AC0160E070E0F0
:1002700080E89FE30E940F097B018C0160E070E041
:1002800080E89FE32E2D3F2D402F512F0E940F0914
:10029000962E872E782E692E95016C2D7D2D832F1D
:1002A000922F20E030E0A9010E947409882339F4DC
:1002B0006401530199248824772466245DC0950144
:1002C0006C2D7D2D832F922F20E030E040E85FE3FE
:1002D0000E947409882359F4992488247724662479
:1002E000DD24CC2460E8B62E5FE3A52E58C095012E
:1002F0006C2D7D2D832F922F20E030E040E050E4E4
:100300000E947409882339F4DD24CC2440E8B42EFB
:100310003FE3A32E17C095016C2D7D2D832F922FC7
:1003200020E030E040E450E40E947409882379F42E
:10033000DE2CCF2CB02EA12E9924882420E8722EFA
:100340009FE3692EEE24FF2400E010E028C0950111
:100350006C2D7D2D832F922F20E030E040E850E47B
:100360000E947409882369F09E2C8F2C702E612EB8
:10037000DD24CC24BB24AA24EE24FF2400E81FE3C0
:100380000EC0E92CF82C072D162D9924882480E81E
:10039000782EBFE36B2EDD24CC24BB24AA24C42DED
:1003A000D0E0A3E0CC0FDD1FAA95E1F7C50DD11D6C
:1003B000F6E24F2EF1E05F2E4C0E5D1E6E2D7F2D6E
:1003C000802F912F20E030E048EF51E40E94BE0AD8
:1003D0000E94E009F20160838E010A591E4FA601B6
:1003E0009501652F7C2D832F9A2D20E030E048EF7A
:1003F00051E40E94BE0A0E94E009F8016083CA55D8
:10040000DE4FA4019301652F782D832F962D20E0D8
:1004100030E048EF51E40E94BE0A0E94E009688380
:10042000DF91CF911F910F91FF90EF90DF90CF90D0
:10043000BF90AF909F908F907F906F905F904F9004
:1004400008956F927F928F929F92BF92CF92DF9288
:10045000EF92FF920F931F93CF93DF93B82E3A0141
:10046000082F10E0F3E0000F111FFA95E1F7E6E224
:10047000CE2EE1E0DE2EC00ED11E76E6E72E71E034
:10048000F72EE00EF11E0A551E4FC0E0D0E0862E7A
:100490009924C4010C2E02C0959587950A94E2F721
:1004A00080FF06C08B2D6C2FA3010E94FB0006C0AD
:1004B000F6011082F7011082F8011082219608944B
:1004C000C11CD11C0894E11CF11C0F5F1F4FC830E8
:1004D000D105F9F6DF91CF911F910F91FF90EF9029
:1004E000DF90CF90BF909F908F907F906F900895F6
:1004F000CF93DF93EC0180E060E0AE010E94210227
:1005000081E060E0AE010E94210282E066E6AE0179
:100510000E94210283E060E0AE010E94210284E09B
:1005200068E1AE010E94210285E069E9AE010E9406
:10053000210286E062E4AE010E94210287E06CE3C2
:10054000AE010E942102DF91CF9108950F931F9376
:10055000182F092F80E060E0412F592F0E942102BF
:1005600081E066E6412F502F0E94210282E066E67C
:10057000412F502F0E94210283E060E0412F502F35
:100580000E94210284E068E1412F502F0E94210245
:1005900085E069E9412F502F0E94210286E062E444
:1005A000412F502F0E94210287E06CE3412F502FF2
:1005B0000E9421021F910F9108958CB580658CBD1A
:1005C0008DB58EB58CB58C7F8CBD8DB581608DBDA4
:1005D00008959FB7F894E1E8F0E08081856080831A
:1005E00080818D7F8083A0E8B0E08C918C7F8C939C
:1005F00080818860808380818F7E80838C918F70E2
:100600008C9321E030E03093890020938800EFE65E
:10061000F0E08081826080839FBF08951F920F92D7
:100620000FB60F9211248F929F92AF92BF92DF92DA
:10063000EF92FF920F931F932F933F934F935F93EC
:100640006F937F938F939F93AF93BF93CF93DF93DA
:10065000EF93FF93299AD090E601AD2CBB248091B3
:10066000140190911501D501E3E0AA0FBB1FEA9593
:10067000E1F78D010A5D1E4FED01CA55DE4FAA5903
:10068000BE4F20E030E06FEF5FEF4FEF71E0872E5D
:10069000912C722FF801E080FF24E822F922E11466
:1006A000F10449F07401022E02C0EE0CFF1C0A9402
:1006B000E2F7E0944E21EC90FF24E822F922E114C5
:1006C000F10449F07401072E02C0EE0CFF1C0A94DD
:1006D000E2F7E0945E21E880FF24E822F922E114A9
:1006E000F10449F0740102C0EE0CFF1C7A95E2F7A8
:1006F0007E2D709567232F5F3F4F0F5F1F4F219611
:1007000011962830310529F62A9821E030E002C000
:10071000220F331FAA94E2F72EBD0DB407FEFDCFC2
:100720002EB56EBD0DB407FEFDCF2EB55EBD0DB46A
:1007300007FEFDCF2EB54EBD0DB407FEFDCF2EB585
:100740002A9A9C01220F331F309315012093140124
:100750002034310551F481E090E0909315018093AD
:100760001401D394D092E60181E09091E601983093
:1007700010F01092E60190E0909389008093880039
:10078000109285001092840082E086BB2998FF9128
:10079000EF91DF91CF91BF91AF919F918F917F9119
:1007A0006F915F914F913F912F911F910F91FF900A
:1007B000EF90DF90BF90AF909F908F900F900FBE03
:1007C0000F901F9018950F931F93CF93DF93C0E066
:1007D000D0E02DC0C193DB01CD93BD01D801CD93F5
:1007E0008D01E417F507B1F70196AF01485F5F4F40
:1007F0008830910581F09C0173E0220F331F7A95B8
:10080000E1F7F901EA5DFE4FB9016A597E4F8901AE
:100810000A551E4FDFCF64E070E080E090E00E9458
:10082000B5052196C032D10511F41FE12BC04EE26F
:1008300051E080E090E0DFCF119319931D93E4170E
:10084000F507D1F70196AF01485F5F4F88309105FA
:1008500081F09C0163E0220F331F6A95E1F7F901F3
:10086000EA5DFE4FE901CA59DE4FD901AA55BE4FD4
:10087000E3CF64E070E080E090E00E94B5051150A5
:100880001F3F29F04EE251E080E090E0E2CFDF919F
:10089000CF911F910F910895AF92BF92CF92DF92A7
:1008A000EF92FF920F931F938C01F62EEE245A01C4
:1008B000CC24DD2416C0C601B5010E94B505C801CF
:1008C0000E94A602C601B5010E94B505C8010E949A
:1008D0007802C601B5010E94B505C8010E94A602B2
:1008E000E394EF1440F31F910F91FF90EF90DF908E
:1008F000CF90BF90AF9008950F931F9368E070E082
:1009000080E090E00E94D308062F68E070E080E06D
:1009100090E00E94D308162F68E671E080E090E036
:100920000E94D3089B01AC01802F612FA9010E9476
:10093000FB001F910F910895CF92DF92EF92FF92EB
:100940000F931F93082F10E0C62EDD24EE24FF2402
:1009500011C084E061E00E946906C701B6010E94EF
:10096000B50584E060E00E946906C701B6010E94F7
:10097000B5051F5F101768F31F910F91FF90EF905F
:10098000DF90CF900895CF93DF93C0E0D0E00E9436
:100990007C0488E00E94A0060097A9F40E94E3036B
:1009A00082E062E30E949C040E948C0084E092E05A
:1009B00060E071E00E9424076CED75E080E090E05B
:1009C0000E94B50504C081E06AE00E949C04219663
:1009D000C83CD105E1F688EC90E068E044E650E0E0
:1009E0000E944C0464EC79E080E090E00E94B50540
:1009F000DF91CF9108950E94C30408958BE292E0A5
:100A00000E94F8088DE061E00E9417068AE061E02C
:100A10000E9417068BE061E00E9417068CE060E000
:100A20000E94170689E061E00E94170688E060E0F6
:100A30000E94170688E061E00E94690684E061E098
:100A40000E9417068AE060E00E9469068BE060E081
:100A50000E9469068DE060E00E9469060E94DD0246
:100A60006AE070E080E090E00E94B50580E060E020
:100A700040E00E94C5000E94E90284E092E040E864
:100A800055E260E070E00E949F07299808951F9248
:100A90000F920FB60F9211242F933F938F939F9332
:100AA000AF93BF938091EB019091EC01A091ED0188
:100AB000B091EE013091EF010196A11DB11D232FE0
:100AC0002D5F2D3720F02D570196A11DB11D2093CC
:100AD000EF018093EB019093EC01A093ED01B093B3
:100AE000EE018091E7019091E801A091E901B091B8
:100AF000EA010196A11DB11D8093E7019093E801E1
:100B0000A093E901B093EA01BF91AF919F918F91BA
:100B10003F912F910F900FBE0F901F9018959FB788
:100B2000F8942091E7013091E8014091E90150915A
:100B3000EA0186B5A89B06C08F3F21F02F5F3F4F8B
:100B40004F4F5F4F9FBF542F432F322F2227280F25
:100B5000311D411D511D82E0220F331F441F551FBF
:100B60008A95D1F7B901CA010895EF92FF920F93C8
:100B70001F93CF93DF937B018C010E948F05EB01C4
:100B80000FC00E948F056C1B7D0B83E0683E7807C9
:100B9000C0F30894E108F10801091109C851DC4FBC
:100BA000E114F1040105110561F7DF91CF911F9167
:100BB0000F91FF90EF900895789484B5826084BD82
:100BC00084B5816084BD85B5826085BD85B5816051
:100BD00085BDEEE6F0E0808181608083E1E8F0E0B1
:100BE0001082808182608083808181608083E0E8E0
:100BF000F0E0808181608083E1EBF0E080818460BF
:100C00008083E0EBF0E0808181608083EAE7F0E0C0
:100C10008081846080838081826080838081816024
:100C200080838081806880831092C1000895282F7E
:100C300030E0C90186569F4FFC019491F901EA57B3
:100C4000FF4FE491EE23B9F0F0E0EE0FFF1FE859FB
:100C5000FF4FA591B491662341F42FB7F8948C917E
:100C6000909589238C932FBF08952FB7F8948C917A
:100C7000892B8C932FBF0895833071F0843028F432
:100C80008130A1F0823021F514C08630B1F0873078
:100C9000D1F08430E9F404C0809180008F7703C0E4
:100CA000809180008F7D80938000089584B58F7738
:100CB00002C084B58F7D84BD08958091B0008F7788
:100CC0008093B00008958091B0008F7D8093B00034
:100CD00008950F931F93DF93CF930F92CDB7DEB795
:100CE000282F30E0F901E255FF4F8491F901E656D3
:100CF000FF4F14912A573F4FF90104910023D1F07F
:100D0000882321F069830E943C066981E02FF0E08E
:100D1000EE0FFF1FEE58FF4FA591B4919FB7F894C7
:100D2000662321F48C911095812302C08C91812B34
:100D30008C939FBF0F90CF91DF911F910F910895DA
:100D40000F931F93282F30E0F901E255FF4F849154
:100D5000F901E656FF4F04912A573F4FF9011491CC
:100D6000112319F420E030E013C0882311F00E9411
:100D70003C06E12FF0E0EE0FFF1FE458FF4FA59176
:100D8000B4918C9120E030E0802311F021E030E03C
:100D9000C9011F910F910895CF92DF92EF92FF92B8
:100DA0000F931F93CF93DF93EC018B016A01EE2425
:100DB000FF240FC0F80161918F01E881F981019052
:100DC000F081E02DCE010995E80EF91E0894C108C6
:100DD000D108C114D10471F7C701DF91CF911F91E0
:100DE0000F91FF90EF90DF90CF900895DC01ED918F
:100DF000FC910190F081E02D099508950F931F93C8
:100E0000CF93DF93EC016DE00E94F6068C01CE01DA
:100E10006AE00E94F606080F191FC801DF91CF9102
:100E20001F910F910895DB010D900020E9F7AD01AE
:100E300041505040461B570BDC01ED91FC91028064
:100E4000F381E02D099508950F931F93CF93DF93BE
:100E5000EC010E9413078C01CE010E94FE06080FD0
:100E6000191FC801DF91CF911F910F910895089527
:100E70001F920F920FB60F9211242F938F939F936F
:100E8000EF93FF939091C6008091F8018F5F877078
:100E90002091F901821741F0E091F801F0E0E05172
:100EA000FE4F90838093F801FF91EF919F918F9176
:100EB0002F910F900FBE0F901F901895E091100288
:100EC000F09111028085218590E00896821B91099E
:100ED00087709070009711F00E94370708951F9255
:100EE0000F920FB60F9211242F938F939F93EF932E
:100EF000FF939091020280910302981731F4809140
:100F0000C1008F7D8093C10010C0E0910302F0E02A
:100F1000E650FE4F20818091030290E00196877099
:100F20009070809303022093C600FF91EF919F91F0
:100F30008F912F910F900FBE0F901F901895AF9229
:100F4000BF92DF92EF92FF920F931F93CF93DF93A5
:100F5000EC017A018B01DD24403081EE580780E0FE
:100F6000680780E0780711F0DD24D39491E0A92E82
:100F7000B12CEC89FD89DD2069F0C5010E8C02C021
:100F8000880F991F0A94E2F7808360E079E08DE38F
:100F900090E005C0108260E874E88EE190E0A8015E
:100FA00097010E94540B21503040404050405695CC
:100FB00047953795279580E12030380720F0DD20D0
:100FC00011F0DD24D6CFE889F9893083EA89FB89DD
:100FD0002083EE89FF89208181E090E0AC010A8CBA
:100FE00002C0440F551F0A94E2F7242B2083EE8998
:100FF000FF892081AC010B8C02C0440F551F0A945D
:10100000E2F7242B2083EE89FF892081AC010C8C30
:1010100002C0440F551F0A94E2F7242B2083EE8967
:10102000FF8920810D8C02C0880F991F0A94E2F776
:10103000809582238083DF91CF911F910F91FF9044
:10104000EF90DF90BF90AF900895DC011C96ED917A
:10105000FC911D972085818530E0285F3F4F281B3C
:10106000310927703070C9010895DC011C96ED919B
:10107000FC911D9790858185981719F42FEF3FEF0C
:1010800005C08185E80FF11D208130E0C901089578
:10109000DC011C96ED91FC911D9790858185981738
:1010A00019F42FEF3FEF0BC0A185CF018A0F911DDF
:1010B000DC012C9181858F5F8770818730E0C901C9
:1010C0000895DC011E96ED91FC911F979085818516
:1010D0009817E1F70895FC01A685B78518968C91BD
:1010E000189790E001968770907019962C91199737
:1010F00030E082179307C9F318962C911897A20F26
:10110000B11D6C93A685B78518968C93A689B7896F
:101110008C9121E030E0058C02C0220F331F0A942D
:10112000E2F7822B8C9381E090E008951092070201
:101130001092060288EE93E0A0E0B0E080930802EF
:1011400090930902A0930A02B0930B02E6E0F2E04A
:101150008AE191E09293829380EF91E09587848772
:101160008AEF91E09787868785EC90E0918B808B62
:1011700084EC90E0938B828B80EC90E0958B848B59
:1011800081EC90E0978B868B86EC90E0918F808F3E
:1011900084E0828F83E0838F87E0848F85E0858F72
:1011A00081E0868F0895EF92FF920F931F937B014A
:1011B0008C01611571058105910521F420E030E075
:1011C000A9010FC00E94EA0BA80197010E94760BAB
:1011D000572F482F392F862F952FA42FB32F9C01DF
:1011E000AD01B901CA011F910F91FF90EF900895D1
:1011F000009729F0BC0180E090E00E94EF0B089579
:10120000CF93DF930E94DC050E94FE04CEE5D7E079
:101210000E94FB042097E1F30E945E07F9CF50582B
:10122000BB27AA270ED070C161D130F066D120F063
:1012300031F49F3F11F41EF456C10EF4E095E7FB24
:101240004CC1E92F72D180F3BA1762077307840784
:10125000950718F071F49EF58AC10EF4E0950B2EF7
:10126000BA2FA02D0B01B90190010C01CA01A001F8
:101270001124FF27591B99F0593F50F4503E68F153
:101280001A16F040A22F232F342F4427585FF3CF94
:10129000469537952795A795F0405395C9F77EF465
:1012A0001F16BA0B620B730B840BBAF09150A1F0AE
:1012B000FF0FBB1F661F771F881FC2F70EC0BA0F34
:1012C000621F731F841F48F4879577956795B795BC
:1012D000F7959E3F08F0B3CF9395880F08F09927B4
:1012E000EE0F979587950895D4D008F481E008957E
:1012F0000CD00AC102D140F0F9D030F021F45F3FA8
:1013000019F0EBC0511134C1EEC00FD198F39923FD
:10131000C9F35523B1F3951B550BBB27AA276217B9
:101320007307840738F09F5F5F4F220F331F441FFE
:10133000AA1FA9F333D00E2E3AF0E0E830D0915036
:101340005040E695001CCAF729D0FE2F27D0660F23
:10135000771F881FBB1F261737074807AB07B0E862
:1013600009F0BB0B802DBF01FF2793585F4F2AF078
:101370009E3F510568F0B1C0FBC05F3FECF3983E63
:10138000DCF3869577956795B795F7959F5FC9F7D5
:10139000880F911D9695879597F90895E1E0660F5E
:1013A000771F881FBB1F621773078407BA0720F0D7
:1013B000621B730B840BBA0BEE1F88F7E095089540
:1013C000BCD088F09F5790F0B92F9927B751A0F063
:1013D000D1F0660F771F881F991F1AF0BA95C9F7C9
:1013E00012C0B13081F0C3D0B1E00895C0C0672F02
:1013F000782F8827B85F39F0B93FCCF38695779579
:101400006795B395D9F73EF4909580957095619561
:101410007F4F8F4F9F4F0895E89409C097FB3EF48C
:1014200090958095709561957F4F8F4F9F4F992331
:10143000A9F0F92F96E9BB279395F69587957795AF
:101440006795B795F111F8CFFAF4BB0F11F460FF6F
:101450001BC06F5F7F4F8F4F9F4F16C0882311F0C7
:1014600096E911C0772321F09EE8872F762F05C0DB
:10147000662371F096E8862F70E060E02AF09A9576
:10148000660F771F881FDAF7880F9695879597F96B
:101490000895990F0008550FAA0BE0E8FEEF161605
:1014A0001706E807F907C0F012161306E407F50758
:1014B00098F0621B730B840B950B39F40A2661F0CC
:1014C000232B242B252B21F408950A2609F4A1406F
:1014D000A6958FEF811D811D089597F99F6780E87C
:1014E00070E060E008959FEF80EC089500240A9476
:1014F0001616170618060906089500240A941216EF
:101500001306140605060895092E0394000C11F421
:10151000882352F0BB0F40F4BF2B11F460FF04C0CE
:101520006F5F7F4F8F4F9F4F089557FD9058440F27
:10153000551F59F05F3F71F04795880F97FB991F32
:1015400061F09F3F79F087950895121613061406EF
:10155000551FF2CF4695F1DF08C01616170618067C
:10156000991FF1CF86957105610508940895E89457
:10157000BB2766277727CB0197F908950BD0C4CFF7
:10158000B5DF28F0BADF18F0952309F0A6CFABCF6E
:101590001124EECFCADFA0F3959FD1F3950F50E051
:1015A000551F629FF001729FBB27F00DB11D639F15
:1015B000AA27F00DB11DAA1F649F6627B00DA11DBB
:1015C000661F829F2227B00DA11D621F739FB00D61
:1015D000A11D621F839FA00D611D221F749F3327D1
:1015E000A00D611D231F849F600D211D822F762F6A
:1015F0006A2F11249F5750408AF0E1F088234AF067
:10160000EE0FFF1FBB1F661F771F881F91505040B2
:10161000A9F79E3F510570F060CFAACF5F3FECF372
:10162000983EDCF3869577956795B795F795E7959E
:101630009F5FC1F7FE2B880F911D9695879597F9AF
:101640000895629FD001739FF001829FE00DF11D0C
:10165000649FE00DF11D929FF00D839FF00D749F2C
:10166000F00D659FF00D9927729FB00DE11DF91FD8
:10167000639FB00DE11DF91FBD01CF011124089535
:10168000AA1BBB1B51E107C0AA1FBB1FA617B707A8
:1016900010F0A61BB70B881F991F5A95A9F78095C4
:1016A0009095BC01CD010895A1E21A2EAA1BBB1B87
:1016B000FD010DC0AA1FBB1FEE1FFF1FA217B3071E
:1016C000E407F50720F0A21BB30BE40BF50B661F34
:1016D000771F881F991F1A9469F7609570958095F8
:1016E00090959B01AC01BD01CF01089597FB092E98
:1016F00005260ED057FD04D0D7DF0AD0001C38F4E1
:1017000050954095309521953F4F4F4F5F4F08952D
:10171000F6F790958095709561957F4F8F4F9F4F0D
:101720000895EE0FFF1F0590F491E02D0994A0E0BD
:10173000B0E0EDE9FBE00C94000CEC01E880F980EE
:101740000A811B81E114F1040105110541F484E2D1
:10175000E82E89EDF82E8BE5082F87E0182FC801B9
:10176000B7012DE133EF41E050E00E94760B27EA0C
:1017700031E440E050E00E94210B5B016C01C801A4
:10178000B7012DE133EF41E050E00E94760BCA0132
:10179000B9012CEE34EF4FEF5FEF0E94210B9B015C
:1017A000AC012A0D3B1D4C1D5D1D57FF04C021508F
:1017B000304040405048288339834A835B835F77B9
:1017C000B901CA01CDB7DEB7EAE00C941C0C0E9447
:1017D000970B089580E191E00E94970B0895609324
:1017E00010017093110180931201909313010895D9
:1017F0002F923F924F925F926F927F928F929F9221
:10180000AF92BF92CF92DF92EF92FF920F931F930E
:10181000CF93DF93CDB7DEB7CA1BDB0B0FB6F894BF
:10182000DEBF0FBECDBF09942A88398848885F84FF
:101830006E847D848C849B84AA84B984C884DF8070
:10184000EE80FD800C811B81AA81B981CE0FD11D54
:101850000FB6F894DEBF0FBECDBFED010895F8942A
:02186000FFCFB8
:10186200627574746F6E20707265737365642100A3
:10187200010000000100000000006B08CC062508F2
:061882004808350861086A
:103E000085E08093810082E08093C00088E1809308
:103E1000C10086E08093C20080E18093C40084B733
:103E200014BE81FFD0D08DE0C8D0259A86E020E373
:103E30003CEF91E0309385002093840096BBB09BCB
:103E4000FECF1D9AA8958150A9F7DD24D394A5E053
:103E5000EA2EF1E1FF2EA4D0813421F481E0BED01E
:103E600083E024C0823411F484E103C0853419F462
:103E700085E0B4D08AC08535A1F492D0082F10E037
:103E800010930102009300028BD090E0982F8827B6
:103E9000802B912B880F991F909301028093000231
:103EA00073C0863529F484E099D080E071D06DC06C
:103EB000843609F043C07CD0E0910002F091010209
:103EC00083E080935700E895C0E0D1E069D0899302
:103ED000809102028150809302028823B9F778D042
:103EE00007B600FCFDCF4091000250910102A0E016
:103EF000B1E02C9130E011968C91119790E0982FC1
:103F00008827822B932B1296FA010C01D09257002E
:103F1000E89511244E5F5F4FF1E0A038BF0749F7E5
:103F2000E0910002F0910102E0925700E89507B697
:103F300000FCFDCFF0925700E89527C08437B9F414
:103F400037D046D0E0910002F09101023196F09313
:103F50000102E09300023197E4918E2F19D08091F5
:103F60000202815080930202882361F70EC08537D8
:103F700039F42ED08EE10CD084E90AD086E096CFB9
:103F8000813511F488E019D023D080E101D063CFCE
:103F9000982F8091C00085FFFCCF9093C6000895B4
:103FA000A8958091C00087FFFCCF8091C60008953E
:103FB000F7DFF6DF80930202F3CFE0E6F0E098E16E
:103FC00090838083089580E0F8DFEE27FF2709942F
:103FD000E7DF803209F0F7DF84E1DACF1F93182F93
:0C3FE000DFDF1150E9F7F4DF1F910895B6
:0400000300003E00BB
:00000001FF